:0400000081EF3FF05D
:107F02000001D5EF3FF0200EAC6E1F0EAF6E900E4B
:107F1200AB6E12009EAAFED7AECF01F09E9A015020
:107F220012009396000ECA6E1F0EBA6E630ECB6ECF
:107F3200000ECC6E320EBB6ECA8412009396000EF7
:107F4200CA6E1F0EBA6E630ECB6E000ECC6E4B0E57
:107F5200BB6ECA8412009396000ECA6E1F0EBA6ED2
:107F6200630ECB6E000ECC6E000EBB6ECA84120086
:107F72009396000ECA6E1F0EBA6E630ECB6E000E83
:107F8200CC6E630EBB6ECA8412009396000ECA6E4C
:107F92001F0EBA6E630ECB6E000ECC6E190EBB6E48
:107FA200CA84000EBD6E120093909392819284EC6B
:107FB2003FF08BEC3FF0076E610E0718D8B4B9ECB6
:107FC2003FF0620E0718D8B4C6EC3FF0630E0718F4
:107FD200D8B492EC3FF0640E0718D8B49FEC3FF08F
:107FE200650E0718D8B4ACEC3FF0660E0718D8B48B
:0E7FF2008182670E0718D8A4DCD78192DAD7F7
:020000040020DA
:08000000FFFFFFFFFFFFFFFF00
:020000040030CA
:0E000000000C191EFF8080FF0FC00FE00F40A4
:00000001FF
