:040000007FEF3FF05F
:107EFE000001D6EF3FF0200EAC6E0F0EAF6E900E5F
:107F0E00AB6E12009EAAFED7AECF01F09E9A015024
:107F1E0012009492000ECA6E1F0EBA6E630ECB6ED6
:107F2E00000ECC6E320EBB6ECA84120092909494E8
:107F3E00000ECA6E1F0EBA6E630ECB6E000ECC6EA6
:107F4E004B0EBB6ECA84120092909494000ECA6EB1
:107F5E001F0EBA6E630ECB6E000ECC6E000EBB6E95
:107F6E00CA84120092909494000ECA6E1F0EBA6EBE
:107F7E00630ECB6E000ECC6E630EBB6ECA84120007
:107F8E009492000ECA6E1F0EBA6E630ECB6E000E6A
:107F9E00CC6E190EBB6ECA84000EBD6E120093908D
:107FAE00939282EC3FF089EC3FF0076E610E07185A
:107FBE00D8B4B9EC3FF0620E0718D8B4C7EC3FF056
:107FCE00630E0718D8B490EC3FF0640E0718D8B4BF
:107FDE009DEC3FF0650E0718D8B4ABEC3FF0660E83
:107FEE000718D8B48182670E0718D8A4DCD78192FF
:027FFE00DAD7D0
:020000040020DA
:08000000FFFFFFFFFFFFFFFF00
:020000040030CA
:0E000000FF021F1EFF0180FF0FC00FE00F4028
:00000001FF
